{
  "_format": "hh-sol-artifact-1",
  "contractName": "Ticketing",
  "sourceName": "contracts/ticket.sol",
  "abi": [
    {
      "inputs": [
        {
          "internalType": "string",
          "name": "_name",
          "type": "string"
        },
        {
          "internalType": "string",
          "name": "_symbol",
          "type": "string"
        }
      ],
      "stateMutability": "nonpayable",
      "type": "constructor"
    },
    {
      "inputs": [
        {
          "internalType": "address",
          "name": "sender",
          "type": "address"
        },
        {
          "internalType": "uint256",
          "name": "tokenId",
          "type": "uint256"
        },
        {
          "internalType": "address",
          "name": "owner",
          "type": "address"
        }
      ],
      "name": "ERC721IncorrectOwner",
      "type": "error"
    },
    {
      "inputs": [
        {
          "internalType": "address",
          "name": "operator",
          "type": "address"
        },
        {
          "internalType": "uint256",
          "name": "tokenId",
          "type": "uint256"
        }
      ],
      "name": "ERC721InsufficientApproval",
      "type": "error"
    },
    {
      "inputs": [
        {
          "internalType": "address",
          "name": "approver",
          "type": "address"
        }
      ],
      "name": "ERC721InvalidApprover",
      "type": "error"
    },
    {
      "inputs": [
        {
          "internalType": "address",
          "name": "operator",
          "type": "address"
        }
      ],
      "name": "ERC721InvalidOperator",
      "type": "error"
    },
    {
      "inputs": [
        {
          "internalType": "address",
          "name": "owner",
          "type": "address"
        }
      ],
      "name": "ERC721InvalidOwner",
      "type": "error"
    },
    {
      "inputs": [
        {
          "internalType": "address",
          "name": "receiver",
          "type": "address"
        }
      ],
      "name": "ERC721InvalidReceiver",
      "type": "error"
    },
    {
      "inputs": [
        {
          "internalType": "address",
          "name": "sender",
          "type": "address"
        }
      ],
      "name": "ERC721InvalidSender",
      "type": "error"
    },
    {
      "inputs": [
        {
          "internalType": "uint256",
          "name": "tokenId",
          "type": "uint256"
        }
      ],
      "name": "ERC721NonexistentToken",
      "type": "error"
    },
    {
      "inputs": [
        {
          "internalType": "address",
          "name": "owner",
          "type": "address"
        }
      ],
      "name": "OwnableInvalidOwner",
      "type": "error"
    },
    {
      "inputs": [
        {
          "internalType": "address",
          "name": "account",
          "type": "address"
        }
      ],
      "name": "OwnableUnauthorizedAccount",
      "type": "error"
    },
    {
      "anonymous": false,
      "inputs": [
        {
          "indexed": true,
          "internalType": "address",
          "name": "owner",
          "type": "address"
        },
        {
          "indexed": true,
          "internalType": "address",
          "name": "approved",
          "type": "address"
        },
        {
          "indexed": true,
          "internalType": "uint256",
          "name": "tokenId",
          "type": "uint256"
        }
      ],
      "name": "Approval",
      "type": "event"
    },
    {
      "anonymous": false,
      "inputs": [
        {
          "indexed": true,
          "internalType": "address",
          "name": "owner",
          "type": "address"
        },
        {
          "indexed": true,
          "internalType": "address",
          "name": "operator",
          "type": "address"
        },
        {
          "indexed": false,
          "internalType": "bool",
          "name": "approved",
          "type": "bool"
        }
      ],
      "name": "ApprovalForAll",
      "type": "event"
    },
    {
      "anonymous": false,
      "inputs": [
        {
          "indexed": true,
          "internalType": "address",
          "name": "previousOwner",
          "type": "address"
        },
        {
          "indexed": true,
          "internalType": "address",
          "name": "newOwner",
          "type": "address"
        }
      ],
      "name": "OwnershipTransferred",
      "type": "event"
    },
    {
      "anonymous": false,
      "inputs": [
        {
          "indexed": true,
          "internalType": "address",
          "name": "from",
          "type": "address"
        },
        {
          "indexed": true,
          "internalType": "address",
          "name": "to",
          "type": "address"
        },
        {
          "indexed": true,
          "internalType": "uint256",
          "name": "tokenId",
          "type": "uint256"
        }
      ],
      "name": "Transfer",
      "type": "event"
    },
    {
      "inputs": [
        {
          "internalType": "address",
          "name": "to",
          "type": "address"
        },
        {
          "internalType": "uint256",
          "name": "tokenId",
          "type": "uint256"
        }
      ],
      "name": "approve",
      "outputs": [],
      "stateMutability": "nonpayable",
      "type": "function"
    },
    {
      "inputs": [
        {
          "internalType": "address",
          "name": "owner",
          "type": "address"
        }
      ],
      "name": "balanceOf",
      "outputs": [
        {
          "internalType": "uint256",
          "name": "",
          "type": "uint256"
        }
      ],
      "stateMutability": "view",
      "type": "function"
    },
    {
      "inputs": [
        {
          "internalType": "uint256",
          "name": "tokenId",
          "type": "uint256"
        }
      ],
      "name": "getApproved",
      "outputs": [
        {
          "internalType": "address",
          "name": "",
          "type": "address"
        }
      ],
      "stateMutability": "view",
      "type": "function"
    },
    {
      "inputs": [
        {
          "internalType": "uint256",
          "name": "_id",
          "type": "uint256"
        }
      ],
      "name": "getOccasion",
      "outputs": [
        {
          "components": [
            {
              "internalType": "uint256",
              "name": "id",
              "type": "uint256"
            },
            {
              "internalType": "string",
              "name": "name",
              "type": "string"
            },
            {
              "internalType": "uint256",
              "name": "cost",
              "type": "uint256"
            },
            {
              "internalType": "uint256",
              "name": "tickets",
              "type": "uint256"
            },
            {
              "internalType": "uint256",
              "name": "maxTickets",
              "type": "uint256"
            },
            {
              "internalType": "string",
              "name": "date",
              "type": "string"
            },
            {
              "internalType": "string",
              "name": "time",
              "type": "string"
            },
            {
              "internalType": "string",
              "name": "location",
              "type": "string"
            }
          ],
          "internalType": "struct Ticketing.Occasion",
          "name": "",
          "type": "tuple"
        }
      ],
      "stateMutability": "view",
      "type": "function"
    },
    {
      "inputs": [
        {
          "internalType": "uint256",
          "name": "_id",
          "type": "uint256"
        }
      ],
      "name": "getSeatsTaken",
      "outputs": [
        {
          "internalType": "uint256[]",
          "name": "",
          "type": "uint256[]"
        }
      ],
      "stateMutability": "view",
      "type": "function"
    },
    {
      "inputs": [
        {
          "internalType": "address",
          "name": "owner",
          "type": "address"
        },
        {
          "internalType": "address",
          "name": "operator",
          "type": "address"
        }
      ],
      "name": "isApprovedForAll",
      "outputs": [
        {
          "internalType": "bool",
          "name": "",
          "type": "bool"
        }
      ],
      "stateMutability": "view",
      "type": "function"
    },
    {
      "inputs": [
        {
          "internalType": "string",
          "name": "_name",
          "type": "string"
        },
        {
          "internalType": "uint256",
          "name": "_cost",
          "type": "uint256"
        },
        {
          "internalType": "uint256",
          "name": "_maxTickets",
          "type": "uint256"
        },
        {
          "internalType": "string",
          "name": "_date",
          "type": "string"
        },
        {
          "internalType": "string",
          "name": "_time",
          "type": "string"
        },
        {
          "internalType": "string",
          "name": "_location",
          "type": "string"
        }
      ],
      "name": "list",
      "outputs": [],
      "stateMutability": "nonpayable",
      "type": "function"
    },
    {
      "inputs": [
        {
          "internalType": "uint256",
          "name": "_id",
          "type": "uint256"
        },
        {
          "internalType": "uint256",
          "name": "_seat",
          "type": "uint256"
        }
      ],
      "name": "mint",
      "outputs": [],
      "stateMutability": "payable",
      "type": "function"
    },
    {
      "inputs": [],
      "name": "name",
      "outputs": [
        {
          "internalType": "string",
          "name": "",
          "type": "string"
        }
      ],
      "stateMutability": "view",
      "type": "function"
    },
    {
      "inputs": [
        {
          "internalType": "uint256",
          "name": "",
          "type": "uint256"
        }
      ],
      "name": "occasions",
      "outputs": [
        {
          "internalType": "uint256",
          "name": "id",
          "type": "uint256"
        },
        {
          "internalType": "string",
          "name": "name",
          "type": "string"
        },
        {
          "internalType": "uint256",
          "name": "cost",
          "type": "uint256"
        },
        {
          "internalType": "uint256",
          "name": "tickets",
          "type": "uint256"
        },
        {
          "internalType": "uint256",
          "name": "maxTickets",
          "type": "uint256"
        },
        {
          "internalType": "string",
          "name": "date",
          "type": "string"
        },
        {
          "internalType": "string",
          "name": "time",
          "type": "string"
        },
        {
          "internalType": "string",
          "name": "location",
          "type": "string"
        }
      ],
      "stateMutability": "view",
      "type": "function"
    },
    {
      "inputs": [],
      "name": "owner",
      "outputs": [
        {
          "internalType": "address",
          "name": "",
          "type": "address"
        }
      ],
      "stateMutability": "view",
      "type": "function"
    },
    {
      "inputs": [
        {
          "internalType": "uint256",
          "name": "tokenId",
          "type": "uint256"
        }
      ],
      "name": "ownerOf",
      "outputs": [
        {
          "internalType": "address",
          "name": "",
          "type": "address"
        }
      ],
      "stateMutability": "view",
      "type": "function"
    },
    {
      "inputs": [],
      "name": "renounceOwnership",
      "outputs": [],
      "stateMutability": "nonpayable",
      "type": "function"
    },
    {
      "inputs": [
        {
          "internalType": "address",
          "name": "from",
          "type": "address"
        },
        {
          "internalType": "address",
          "name": "to",
          "type": "address"
        },
        {
          "internalType": "uint256",
          "name": "tokenId",
          "type": "uint256"
        }
      ],
      "name": "safeTransferFrom",
      "outputs": [],
      "stateMutability": "nonpayable",
      "type": "function"
    },
    {
      "inputs": [
        {
          "internalType": "address",
          "name": "from",
          "type": "address"
        },
        {
          "internalType": "address",
          "name": "to",
          "type": "address"
        },
        {
          "internalType": "uint256",
          "name": "tokenId",
          "type": "uint256"
        },
        {
          "internalType": "bytes",
          "name": "data",
          "type": "bytes"
        }
      ],
      "name": "safeTransferFrom",
      "outputs": [],
      "stateMutability": "nonpayable",
      "type": "function"
    },
    {
      "inputs": [
        {
          "internalType": "uint256",
          "name": "",
          "type": "uint256"
        },
        {
          "internalType": "uint256",
          "name": "",
          "type": "uint256"
        }
      ],
      "name": "seatTaken",
      "outputs": [
        {
          "internalType": "address",
          "name": "",
          "type": "address"
        }
      ],
      "stateMutability": "view",
      "type": "function"
    },
    {
      "inputs": [
        {
          "internalType": "uint256",
          "name": "",
          "type": "uint256"
        },
        {
          "internalType": "uint256",
          "name": "",
          "type": "uint256"
        }
      ],
      "name": "seatsTaken",
      "outputs": [
        {
          "internalType": "uint256",
          "name": "",
          "type": "uint256"
        }
      ],
      "stateMutability": "view",
      "type": "function"
    },
    {
      "inputs": [
        {
          "internalType": "address",
          "name": "operator",
          "type": "address"
        },
        {
          "internalType": "bool",
          "name": "approved",
          "type": "bool"
        }
      ],
      "name": "setApprovalForAll",
      "outputs": [],
      "stateMutability": "nonpayable",
      "type": "function"
    },
    {
      "inputs": [
        {
          "internalType": "bytes4",
          "name": "interfaceId",
          "type": "bytes4"
        }
      ],
      "name": "supportsInterface",
      "outputs": [
        {
          "internalType": "bool",
          "name": "",
          "type": "bool"
        }
      ],
      "stateMutability": "view",
      "type": "function"
    },
    {
      "inputs": [],
      "name": "symbol",
      "outputs": [
        {
          "internalType": "string",
          "name": "",
          "type": "string"
        }
      ],
      "stateMutability": "view",
      "type": "function"
    },
    {
      "inputs": [
        {
          "internalType": "uint256",
          "name": "",
          "type": "uint256"
        },
        {
          "internalType": "address",
          "name": "",
          "type": "address"
        }
      ],
      "name": "ticketsOwned",
      "outputs": [
        {
          "internalType": "uint256",
          "name": "",
          "type": "uint256"
        }
      ],
      "stateMutability": "view",
      "type": "function"
    },
    {
      "inputs": [
        {
          "internalType": "uint256",
          "name": "tokenId",
          "type": "uint256"
        }
      ],
      "name": "tokenURI",
      "outputs": [
        {
          "internalType": "string",
          "name": "",
          "type": "string"
        }
      ],
      "stateMutability": "view",
      "type": "function"
    },
    {
      "inputs": [],
      "name": "totalOccasions",
      "outputs": [
        {
          "internalType": "uint256",
          "name": "",
          "type": "uint256"
        }
      ],
      "stateMutability": "view",
      "type": "function"
    },
    {
      "inputs": [],
      "name": "totalSupply",
      "outputs": [
        {
          "internalType": "uint256",
          "name": "",
          "type": "uint256"
        }
      ],
      "stateMutability": "view",
      "type": "function"
    },
    {
      "inputs": [
        {
          "internalType": "address",
          "name": "from",
          "type": "address"
        },
        {
          "internalType": "address",
          "name": "to",
          "type": "address"
        },
        {
          "internalType": "uint256",
          "name": "tokenId",
          "type": "uint256"
        }
      ],
      "name": "transferFrom",
      "outputs": [],
      "stateMutability": "nonpayable",
      "type": "function"
    },
    {
      "inputs": [
        {
          "internalType": "address",
          "name": "newOwner",
          "type": "address"
        }
      ],
      "name": "transferOwnership",
      "outputs": [],
      "stateMutability": "nonpayable",
      "type": "function"
    },
    {
      "inputs": [],
      "name": "withdraw",
      "outputs": [],
      "stateMutability": "nonpayable",
      "type": "function"
    }
  ],
  "bytecode": "0x60806040523480156200001157600080fd5b50604051620041b9380380620041b9833981810160405281019062000037919062000348565b33828281600090816200004b919062000618565b5080600190816200005d919062000618565b505050600073ffffffffffffffffffffffffffffffffffffffff168173ffffffffffffffffffffffffffffffffffffffff1603620000d55760006040517f1e4fbdf7000000000000000000000000000000000000000000000000000000008152600401620000cc919062000744565b60405180910390fd5b620000e681620000ef60201b60201c565b50505062000761565b6000600660009054906101000a900473ffffffffffffffffffffffffffffffffffffffff16905081600660006101000a81548173ffffffffffffffffffffffffffffffffffffffff021916908373ffffffffffffffffffffffffffffffffffffffff1602179055508173ffffffffffffffffffffffffffffffffffffffff168173ffffffffffffffffffffffffffffffffffffffff167f8be0079c531659141344cd1fd0a4f28419497f9722a3daafe3b4186f6b6457e060405160405180910390a35050565b6000604051905090565b600080fd5b600080fd5b600080fd5b600080fd5b6000601f19601f8301169050919050565b7f4e487b7100000000000000000000000000000000000000000000000000000000600052604160045260246000fd5b6200021e82620001d3565b810181811067ffffffffffffffff8211171562000240576200023f620001e4565b5b80604052505050565b600062000255620001b5565b905062000263828262000213565b919050565b600067ffffffffffffffff821115620002865762000285620001e4565b5b6200029182620001d3565b9050602081019050919050565b60005b83811015620002be578082015181840152602081019050620002a1565b60008484015250505050565b6000620002e1620002db8462000268565b62000249565b9050828152602081018484840111156200030057620002ff620001ce565b5b6200030d8482856200029e565b509392505050565b600082601f8301126200032d576200032c620001c9565b5b81516200033f848260208601620002ca565b91505092915050565b60008060408385031215620003625762000361620001bf565b5b600083015167ffffffffffffffff811115620003835762000382620001c4565b5b620003918582860162000315565b925050602083015167ffffffffffffffff811115620003b557620003b4620001c4565b5b620003c38582860162000315565b9150509250929050565b600081519050919050565b7f4e487b7100000000000000000000000000000000000000000000000000000000600052602260045260246000fd5b600060028204905060018216806200042057607f821691505b602082108103620004365762000435620003d8565b5b50919050565b60008190508160005260206000209050919050565b60006020601f8301049050919050565b600082821b905092915050565b600060088302620004a07fffffffffffffffffffffffffffffffffffffffffffffffffffffffffffffffff8262000461565b620004ac868362000461565b95508019841693508086168417925050509392505050565b6000819050919050565b6000819050919050565b6000620004f9620004f3620004ed84620004c4565b620004ce565b620004c4565b9050919050565b6000819050919050565b6200051583620004d8565b6200052d620005248262000500565b8484546200046e565b825550505050565b600090565b6200054462000535565b620005518184846200050a565b505050565b5b8181101562000579576200056d6000826200053a565b60018101905062000557565b5050565b601f821115620005c85762000592816200043c565b6200059d8462000451565b81016020851015620005ad578190505b620005c5620005bc8562000451565b83018262000556565b50505b505050565b600082821c905092915050565b6000620005ed60001984600802620005cd565b1980831691505092915050565b6000620006088383620005da565b9150826002028217905092915050565b6200062382620003cd565b67ffffffffffffffff8111156200063f576200063e620001e4565b5b6200064b825462000407565b620006588282856200057d565b600060209050601f8311600181146200069057600084156200067b578287015190505b620006878582620005fa565b865550620006f7565b601f198416620006a0866200043c565b60005b82811015620006ca57848901518255600182019150602085019450602081019050620006a3565b86831015620006ea5784890151620006e6601f891682620005da565b8355505b6001600288020188555050505b505050505050565b600073ffffffffffffffffffffffffffffffffffffffff82169050919050565b60006200072c82620006ff565b9050919050565b6200073e816200071f565b82525050565b60006020820190506200075b600083018462000733565b92915050565b613a4880620007716000396000f3fe60806040526004361061019c5760003560e01c80636352211e116100ec5780639a382f0f1161008a578063b88d4fde11610064578063b88d4fde146105f8578063c87b56dd14610621578063e985e9c51461065e578063f2fde38b1461069b5761019c565b80639a382f0f14610569578063a22cb46514610592578063af296da1146105bb5761019c565b806374bc8656116100c657806374bc8656146104ab5780638da5cb5b146104e8578063953865c11461051357806395d89b411461053e5761019c565b80636352211e1461041a57806370a0823114610457578063715018a6146104945761019c565b80631b2ef1ca116101595780633ccfd60b116101335780633ccfd60b1461035957806342842e0e146103705780634e7497fc1461039957806361a5672d146103d65761019c565b80631b2ef1ca146102d757806323b872dd146102f357806338df3f5b1461031c5761019c565b806301ffc9a7146101a157806306fdde03146101de578063081812fc14610209578063095ea7b3146102465780630ef7ec741461026f57806318160ddd146102ac575b600080fd5b3480156101ad57600080fd5b506101c860048036038101906101c391906127d2565b6106c4565b6040516101d5919061281a565b60405180910390f35b3480156101ea57600080fd5b506101f36107a6565b60405161020091906128c5565b60405180910390f35b34801561021557600080fd5b50610230600480360381019061022b919061291d565b610838565b60405161023d919061298b565b60405180910390f35b34801561025257600080fd5b5061026d600480360381019061026891906129d2565b610854565b005b34801561027b57600080fd5b506102966004803603810190610291919061291d565b61086a565b6040516102a39190612ad0565b60405180910390f35b3480156102b857600080fd5b506102c16108d5565b6040516102ce9190612b01565b60405180910390f35b6102f160048036038101906102ec9190612b1c565b6108db565b005b3480156102ff57600080fd5b5061031a60048036038101906103159190612b5c565b610c7d565b005b34801561032857600080fd5b50610343600480360381019061033e9190612baf565b610d7f565b6040516103509190612b01565b60405180910390f35b34801561036557600080fd5b5061036e610da4565b005b34801561037c57600080fd5b5061039760048036038101906103929190612b5c565b610e62565b005b3480156103a557600080fd5b506103c060048036038101906103bb9190612b1c565b610e82565b6040516103cd9190612b01565b60405180910390f35b3480156103e257600080fd5b506103fd60048036038101906103f8919061291d565b610eb3565b604051610411989796959493929190612bef565b60405180910390f35b34801561042657600080fd5b50610441600480360381019061043c919061291d565b61111b565b60405161044e919061298b565b60405180910390f35b34801561046357600080fd5b5061047e60048036038101906104799190612c89565b61112d565b60405161048b9190612b01565b60405180910390f35b3480156104a057600080fd5b506104a96111e7565b005b3480156104b757600080fd5b506104d260048036038101906104cd919061291d565b6111fb565b6040516104df9190612dc5565b60405180910390f35b3480156104f457600080fd5b506104fd611499565b60405161050a919061298b565b60405180910390f35b34801561051f57600080fd5b506105286114c3565b6040516105359190612b01565b60405180910390f35b34801561054a57600080fd5b506105536114c9565b60405161056091906128c5565b60405180910390f35b34801561057557600080fd5b50610590600480360381019061058b9190612f1c565b61155b565b005b34801561059e57600080fd5b506105b960048036038101906105b49190613045565b611657565b005b3480156105c757600080fd5b506105e260048036038101906105dd9190612b1c565b61166d565b6040516105ef919061298b565b60405180910390f35b34801561060457600080fd5b5061061f600480360381019061061a9190613126565b6116af565b005b34801561062d57600080fd5b506106486004803603810190610643919061291d565b6116d4565b60405161065591906128c5565b60405180910390f35b34801561066a57600080fd5b50610685600480360381019061068091906131a9565b61173d565b604051610692919061281a565b60405180910390f35b3480156106a757600080fd5b506106c260048036038101906106bd9190612c89565b6117d1565b005b60007f80ac58cd000000000000000000000000000000000000000000000000000000007bffffffffffffffffffffffffffffffffffffffffffffffffffffffff1916827bffffffffffffffffffffffffffffffffffffffffffffffffffffffff1916148061078f57507f5b5e139f000000000000000000000000000000000000000000000000000000007bffffffffffffffffffffffffffffffffffffffffffffffffffffffff1916827bffffffffffffffffffffffffffffffffffffffffffffffffffffffff1916145b8061079f575061079e82611857565b5b9050919050565b6060600080546107b590613218565b80601f01602080910402602001604051908101604052809291908181526020018280546107e190613218565b801561082e5780601f106108035761010080835404028352916020019161082e565b820191906000526020600020905b81548152906001019060200180831161081157829003601f168201915b5050505050905090565b6000610843826118c1565b5061084d82611949565b9050919050565b6108668282610861611986565b61198e565b5050565b6060600c60008381526020019081526020016000208054806020026020016040519081016040528092919081815260200182805480156108c957602002820191906000526020600020905b8154815260200190600101908083116108b5575b50505050509050919050565b60085481565b6000821180156108ed57506007548211155b61092c576040517f08c379a000000000000000000000000000000000000000000000000000000000815260040161092390613295565b60405180910390fd5b6009600083815260200190815260200160002060020154341015610985576040517f08c379a000000000000000000000000000000000000000000000000000000000815260040161097c90613301565b60405180910390fd5b600073ffffffffffffffffffffffffffffffffffffffff16600b6000848152602001908152602001600020600083815260200190815260200160002060009054906101000a900473ffffffffffffffffffffffffffffffffffffffff1673ffffffffffffffffffffffffffffffffffffffff1614610a38576040517f08c379a0000000000000000000000000000000000000000000000000000000008152600401610a2f9061336d565b60405180910390fd5b6009600083815260200190815260200160002060040154811115610a91576040517f08c379a0000000000000000000000000000000000000000000000000000000008152600401610a88906133d9565b60405180910390fd5b6005600a600084815260200190815260200160002060003373ffffffffffffffffffffffffffffffffffffffff1673ffffffffffffffffffffffffffffffffffffffff1681526020019081526020016000205410610b24576040517f08c379a0000000000000000000000000000000000000000000000000000000008152600401610b1b90613445565b60405180910390fd5b6001600960008481526020019081526020016000206003016000828254610b4b9190613494565b92505081905550600a600083815260200190815260200160002060003373ffffffffffffffffffffffffffffffffffffffff1673ffffffffffffffffffffffffffffffffffffffff1681526020019081526020016000206000815480929190610bb3906134c8565b919050555033600b6000848152602001908152602001600020600083815260200190815260200160002060006101000a81548173ffffffffffffffffffffffffffffffffffffffff021916908373ffffffffffffffffffffffffffffffffffffffff160217905550600c600083815260200190815260200160002081908060018154018082558091505060019003906000526020600020016000909190919091505560086000815480929190610c68906134c8565b9190505550610c79336008546119a0565b5050565b600073ffffffffffffffffffffffffffffffffffffffff168273ffffffffffffffffffffffffffffffffffffffff1603610cef5760006040517f64a0ae92000000000000000000000000000000000000000000000000000000008152600401610ce6919061298b565b60405180910390fd5b6000610d038383610cfe611986565b6119be565b90508373ffffffffffffffffffffffffffffffffffffffff168173ffffffffffffffffffffffffffffffffffffffff1614610d79578382826040517f64283d7b000000000000000000000000000000000000000000000000000000008152600401610d7093929190613510565b60405180910390fd5b50505050565b600a602052816000526040600020602052806000526040600020600091509150505481565b610dac611bd8565b6000610db6611499565b73ffffffffffffffffffffffffffffffffffffffff1647604051610dd990613578565b60006040518083038185875af1925050503d8060008114610e16576040519150601f19603f3d011682016040523d82523d6000602084013e610e1b565b606091505b5050905080610e5f576040517f08c379a0000000000000000000000000000000000000000000000000000000008152600401610e56906135d9565b60405180910390fd5b50565b610e7d838383604051806020016040528060008152506116af565b505050565b600c6020528160005260406000208181548110610e9e57600080fd5b90600052602060002001600091509150505481565b6009602052806000526040600020600091509050806000015490806001018054610edc90613218565b80601f0160208091040260200160405190810160405280929190818152602001828054610f0890613218565b8015610f555780601f10610f2a57610100808354040283529160200191610f55565b820191906000526020600020905b815481529060010190602001808311610f3857829003601f168201915b505050505090806002015490806003015490806004015490806005018054610f7c90613218565b80601f0160208091040260200160405190810160405280929190818152602001828054610fa890613218565b8015610ff55780601f10610fca57610100808354040283529160200191610ff5565b820191906000526020600020905b815481529060010190602001808311610fd857829003601f168201915b50505050509080600601805461100a90613218565b80601f016020809104026020016040519081016040528092919081815260200182805461103690613218565b80156110835780601f1061105857610100808354040283529160200191611083565b820191906000526020600020905b81548152906001019060200180831161106657829003601f168201915b50505050509080600701805461109890613218565b80601f01602080910402602001604051908101604052809291908181526020018280546110c490613218565b80156111115780601f106110e657610100808354040283529160200191611111565b820191906000526020600020905b8154815290600101906020018083116110f457829003601f168201915b5050505050905088565b6000611126826118c1565b9050919050565b60008073ffffffffffffffffffffffffffffffffffffffff168273ffffffffffffffffffffffffffffffffffffffff16036111a05760006040517f89c62b64000000000000000000000000000000000000000000000000000000008152600401611197919061298b565b60405180910390fd5b600360008373ffffffffffffffffffffffffffffffffffffffff1673ffffffffffffffffffffffffffffffffffffffff168152602001908152602001600020549050919050565b6111ef611bd8565b6111f96000611c5f565b565b611203612721565b60096000838152602001908152602001600020604051806101000160405290816000820154815260200160018201805461123c90613218565b80601f016020809104026020016040519081016040528092919081815260200182805461126890613218565b80156112b55780601f1061128a576101008083540402835291602001916112b5565b820191906000526020600020905b81548152906001019060200180831161129857829003601f168201915b505050505081526020016002820154815260200160038201548152602001600482015481526020016005820180546112ec90613218565b80601f016020809104026020016040519081016040528092919081815260200182805461131890613218565b80156113655780601f1061133a57610100808354040283529160200191611365565b820191906000526020600020905b81548152906001019060200180831161134857829003601f168201915b5050505050815260200160068201805461137e90613218565b80601f01602080910402602001604051908101604052809291908181526020018280546113aa90613218565b80156113f75780601f106113cc576101008083540402835291602001916113f7565b820191906000526020600020905b8154815290600101906020018083116113da57829003601f168201915b5050505050815260200160078201805461141090613218565b80601f016020809104026020016040519081016040528092919081815260200182805461143c90613218565b80156114895780601f1061145e57610100808354040283529160200191611489565b820191906000526020600020905b81548152906001019060200180831161146c57829003601f168201915b5050505050815250509050919050565b6000600660009054906101000a900473ffffffffffffffffffffffffffffffffffffffff16905090565b60075481565b6060600180546114d890613218565b80601f016020809104026020016040519081016040528092919081815260200182805461150490613218565b80156115515780601f1061152657610100808354040283529160200191611551565b820191906000526020600020905b81548152906001019060200180831161153457829003601f168201915b5050505050905090565b611563611bd8565b60076000815480929190611576906134c8565b91905055506040518061010001604052806007548152602001878152602001868152602001858152602001858152602001848152602001838152602001828152506009600060075481526020019081526020016000206000820151816000015560208201518160010190816115eb91906137a5565b5060408201518160020155606082015181600301556080820151816004015560a082015181600501908161161f91906137a5565b5060c082015181600601908161163591906137a5565b5060e082015181600701908161164b91906137a5565b50905050505050505050565b611669611662611986565b8383611d25565b5050565b600b6020528160005260406000206020528060005260406000206000915091509054906101000a900473ffffffffffffffffffffffffffffffffffffffff1681565b6116ba848484610c7d565b6116ce6116c5611986565b85858585611e94565b50505050565b60606116df826118c1565b5060006116ea612045565b9050600081511161170a5760405180602001604052806000815250611735565b806117148461205c565b6040516020016117259291906138b3565b6040516020818303038152906040525b915050919050565b6000600560008473ffffffffffffffffffffffffffffffffffffffff1673ffffffffffffffffffffffffffffffffffffffff16815260200190815260200160002060008373ffffffffffffffffffffffffffffffffffffffff1673ffffffffffffffffffffffffffffffffffffffff16815260200190815260200160002060009054906101000a900460ff16905092915050565b6117d9611bd8565b600073ffffffffffffffffffffffffffffffffffffffff168173ffffffffffffffffffffffffffffffffffffffff160361184b5760006040517f1e4fbdf7000000000000000000000000000000000000000000000000000000008152600401611842919061298b565b60405180910390fd5b61185481611c5f565b50565b60007f01ffc9a7000000000000000000000000000000000000000000000000000000007bffffffffffffffffffffffffffffffffffffffffffffffffffffffff1916827bffffffffffffffffffffffffffffffffffffffffffffffffffffffff1916149050919050565b6000806118cd8361212a565b9050600073ffffffffffffffffffffffffffffffffffffffff168173ffffffffffffffffffffffffffffffffffffffff160361194057826040517f7e2732890000000000000000000000000000000000000000000000000000000081526004016119379190612b01565b60405180910390fd5b80915050919050565b60006004600083815260200190815260200160002060009054906101000a900473ffffffffffffffffffffffffffffffffffffffff169050919050565b600033905090565b61199b8383836001612167565b505050565b6119ba82826040518060200160405280600081525061232c565b5050565b6000806119ca8461212a565b9050600073ffffffffffffffffffffffffffffffffffffffff168373ffffffffffffffffffffffffffffffffffffffff1614611a0c57611a0b818486612350565b5b600073ffffffffffffffffffffffffffffffffffffffff168173ffffffffffffffffffffffffffffffffffffffff1614611a9d57611a4e600085600080612167565b6001600360008373ffffffffffffffffffffffffffffffffffffffff1673ffffffffffffffffffffffffffffffffffffffff168152602001908152602001600020600082825403925050819055505b600073ffffffffffffffffffffffffffffffffffffffff168573ffffffffffffffffffffffffffffffffffffffff1614611b20576001600360008773ffffffffffffffffffffffffffffffffffffffff1673ffffffffffffffffffffffffffffffffffffffff168152602001908152602001600020600082825401925050819055505b846002600086815260200190815260200160002060006101000a81548173ffffffffffffffffffffffffffffffffffffffff021916908373ffffffffffffffffffffffffffffffffffffffff160217905550838573ffffffffffffffffffffffffffffffffffffffff168273ffffffffffffffffffffffffffffffffffffffff167fddf252ad1be2c89b69c2b068fc378daa952ba7f163c4a11628f55a4df523b3ef60405160405180910390a4809150509392505050565b611be0611986565b73ffffffffffffffffffffffffffffffffffffffff16611bfe611499565b73ffffffffffffffffffffffffffffffffffffffff1614611c5d57611c21611986565b6040517f118cdaa7000000000000000000000000000000000000000000000000000000008152600401611c54919061298b565b60405180910390fd5b565b6000600660009054906101000a900473ffffffffffffffffffffffffffffffffffffffff16905081600660006101000a81548173ffffffffffffffffffffffffffffffffffffffff021916908373ffffffffffffffffffffffffffffffffffffffff1602179055508173ffffffffffffffffffffffffffffffffffffffff168173ffffffffffffffffffffffffffffffffffffffff167f8be0079c531659141344cd1fd0a4f28419497f9722a3daafe3b4186f6b6457e060405160405180910390a35050565b600073ffffffffffffffffffffffffffffffffffffffff168273ffffffffffffffffffffffffffffffffffffffff1603611d9657816040517f5b08ba18000000000000000000000000000000000000000000000000000000008152600401611d8d919061298b565b60405180910390fd5b80600560008573ffffffffffffffffffffffffffffffffffffffff1673ffffffffffffffffffffffffffffffffffffffff16815260200190815260200160002060008473ffffffffffffffffffffffffffffffffffffffff1673ffffffffffffffffffffffffffffffffffffffff16815260200190815260200160002060006101000a81548160ff0219169083151502179055508173ffffffffffffffffffffffffffffffffffffffff168373ffffffffffffffffffffffffffffffffffffffff167f17307eab39ab6107e8899845ad3d59bd9653f200f220920489ca2b5937696c3183604051611e87919061281a565b60405180910390a3505050565b60008373ffffffffffffffffffffffffffffffffffffffff163b111561203e578273ffffffffffffffffffffffffffffffffffffffff1663150b7a02868685856040518563ffffffff1660e01b8152600401611ef3949392919061392c565b6020604051808303816000875af1925050508015611f2f57506040513d601f19601f82011682018060405250810190611f2c919061398d565b60015b611fb3573d8060008114611f5f576040519150601f19603f3d011682016040523d82523d6000602084013e611f64565b606091505b506000815103611fab57836040517f64a0ae92000000000000000000000000000000000000000000000000000000008152600401611fa2919061298b565b60405180910390fd5b805181602001fd5b63150b7a0260e01b7bffffffffffffffffffffffffffffffffffffffffffffffffffffffff1916817bffffffffffffffffffffffffffffffffffffffffffffffffffffffff19161461203c57836040517f64a0ae92000000000000000000000000000000000000000000000000000000008152600401612033919061298b565b60405180910390fd5b505b5050505050565b606060405180602001604052806000815250905090565b60606000600161206b84612414565b01905060008167ffffffffffffffff81111561208a57612089612df1565b5b6040519080825280601f01601f1916602001820160405280156120bc5781602001600182028036833780820191505090505b509050600082602001820190505b60011561211f578080600190039150507f3031323334353637383961626364656600000000000000000000000000000000600a86061a8153600a8581612113576121126139ba565b5b049450600085036120ca575b819350505050919050565b60006002600083815260200190815260200160002060009054906101000a900473ffffffffffffffffffffffffffffffffffffffff169050919050565b80806121a05750600073ffffffffffffffffffffffffffffffffffffffff168273ffffffffffffffffffffffffffffffffffffffff1614155b156122d45760006121b0846118c1565b9050600073ffffffffffffffffffffffffffffffffffffffff168373ffffffffffffffffffffffffffffffffffffffff161415801561221b57508273ffffffffffffffffffffffffffffffffffffffff168173ffffffffffffffffffffffffffffffffffffffff1614155b801561222e575061222c818461173d565b155b1561227057826040517fa9fbf51f000000000000000000000000000000000000000000000000000000008152600401612267919061298b565b60405180910390fd5b81156122d257838573ffffffffffffffffffffffffffffffffffffffff168273ffffffffffffffffffffffffffffffffffffffff167f8c5be1e5ebec7d5bd14f71427d1e84f3dd0314c0f7b2291e5b200ac8c7c3b92560405160405180910390a45b505b836004600085815260200190815260200160002060006101000a81548173ffffffffffffffffffffffffffffffffffffffff021916908373ffffffffffffffffffffffffffffffffffffffff16021790555050505050565b6123368383612567565b61234b612341611986565b6000858585611e94565b505050565b61235b838383612660565b61240f57600073ffffffffffffffffffffffffffffffffffffffff168373ffffffffffffffffffffffffffffffffffffffff16036123d057806040517f7e2732890000000000000000000000000000000000000000000000000000000081526004016123c79190612b01565b60405180910390fd5b81816040517f177e802f0000000000000000000000000000000000000000000000000000000081526004016124069291906139e9565b60405180910390fd5b505050565b600080600090507a184f03e93ff9f4daa797ed6e38ed64bf6a1f0100000000000000008310612472577a184f03e93ff9f4daa797ed6e38ed64bf6a1f0100000000000000008381612468576124676139ba565b5b0492506040810190505b6d04ee2d6d415b85acef810000000083106124af576d04ee2d6d415b85acef810000000083816124a5576124a46139ba565b5b0492506020810190505b662386f26fc1000083106124de57662386f26fc1000083816124d4576124d36139ba565b5b0492506010810190505b6305f5e1008310612507576305f5e10083816124fd576124fc6139ba565b5b0492506008810190505b612710831061252c576127108381612522576125216139ba565b5b0492506004810190505b6064831061254f5760648381612545576125446139ba565b5b0492506002810190505b600a831061255e576001810190505b80915050919050565b600073ffffffffffffffffffffffffffffffffffffffff168273ffffffffffffffffffffffffffffffffffffffff16036125d95760006040517f64a0ae920000000000000000000000000000000000000000000000000000000081526004016125d0919061298b565b60405180910390fd5b60006125e7838360006119be565b9050600073ffffffffffffffffffffffffffffffffffffffff168173ffffffffffffffffffffffffffffffffffffffff161461265b5760006040517f73c6ac6e000000000000000000000000000000000000000000000000000000008152600401612652919061298b565b60405180910390fd5b505050565b60008073ffffffffffffffffffffffffffffffffffffffff168373ffffffffffffffffffffffffffffffffffffffff161415801561271857508273ffffffffffffffffffffffffffffffffffffffff168473ffffffffffffffffffffffffffffffffffffffff1614806126d957506126d8848461173d565b5b8061271757508273ffffffffffffffffffffffffffffffffffffffff166126ff83611949565b73ffffffffffffffffffffffffffffffffffffffff16145b5b90509392505050565b60405180610100016040528060008152602001606081526020016000815260200160008152602001600081526020016060815260200160608152602001606081525090565b6000604051905090565b600080fd5b600080fd5b60007fffffffff0000000000000000000000000000000000000000000000000000000082169050919050565b6127af8161277a565b81146127ba57600080fd5b50565b6000813590506127cc816127a6565b92915050565b6000602082840312156127e8576127e7612770565b5b60006127f6848285016127bd565b91505092915050565b60008115159050919050565b612814816127ff565b82525050565b600060208201905061282f600083018461280b565b92915050565b600081519050919050565b600082825260208201905092915050565b60005b8381101561286f578082015181840152602081019050612854565b60008484015250505050565b6000601f19601f8301169050919050565b600061289782612835565b6128a18185612840565b93506128b1818560208601612851565b6128ba8161287b565b840191505092915050565b600060208201905081810360008301526128df818461288c565b905092915050565b6000819050919050565b6128fa816128e7565b811461290557600080fd5b50565b600081359050612917816128f1565b92915050565b60006020828403121561293357612932612770565b5b600061294184828501612908565b91505092915050565b600073ffffffffffffffffffffffffffffffffffffffff82169050919050565b60006129758261294a565b9050919050565b6129858161296a565b82525050565b60006020820190506129a0600083018461297c565b92915050565b6129af8161296a565b81146129ba57600080fd5b50565b6000813590506129cc816129a6565b92915050565b600080604083850312156129e9576129e8612770565b5b60006129f7858286016129bd565b9250506020612a0885828601612908565b9150509250929050565b600081519050919050565b600082825260208201905092915050565b6000819050602082019050919050565b612a47816128e7565b82525050565b6000612a598383612a3e565b60208301905092915050565b6000602082019050919050565b6000612a7d82612a12565b612a878185612a1d565b9350612a9283612a2e565b8060005b83811015612ac3578151612aaa8882612a4d565b9750612ab583612a65565b925050600181019050612a96565b5085935050505092915050565b60006020820190508181036000830152612aea8184612a72565b905092915050565b612afb816128e7565b82525050565b6000602082019050612b166000830184612af2565b92915050565b60008060408385031215612b3357612b32612770565b5b6000612b4185828601612908565b9250506020612b5285828601612908565b9150509250929050565b600080600060608486031215612b7557612b74612770565b5b6000612b83868287016129bd565b9350506020612b94868287016129bd565b9250506040612ba586828701612908565b9150509250925092565b60008060408385031215612bc657612bc5612770565b5b6000612bd485828601612908565b9250506020612be5858286016129bd565b9150509250929050565b600061010082019050612c05600083018b612af2565b8181036020830152612c17818a61288c565b9050612c266040830189612af2565b612c336060830188612af2565b612c406080830187612af2565b81810360a0830152612c52818661288c565b905081810360c0830152612c66818561288c565b905081810360e0830152612c7a818461288c565b90509998505050505050505050565b600060208284031215612c9f57612c9e612770565b5b6000612cad848285016129bd565b91505092915050565b600082825260208201905092915050565b6000612cd282612835565b612cdc8185612cb6565b9350612cec818560208601612851565b612cf58161287b565b840191505092915050565b600061010083016000830151612d196000860182612a3e565b5060208301518482036020860152612d318282612cc7565b9150506040830151612d466040860182612a3e565b506060830151612d596060860182612a3e565b506080830151612d6c6080860182612a3e565b5060a083015184820360a0860152612d848282612cc7565b91505060c083015184820360c0860152612d9e8282612cc7565b91505060e083015184820360e0860152612db88282612cc7565b9150508091505092915050565b60006020820190508181036000830152612ddf8184612d00565b905092915050565b600080fd5b600080fd5b7f4e487b7100000000000000000000000000000000000000000000000000000000600052604160045260246000fd5b612e298261287b565b810181811067ffffffffffffffff82111715612e4857612e47612df1565b5b80604052505050565b6000612e5b612766565b9050612e678282612e20565b919050565b600067ffffffffffffffff821115612e8757612e86612df1565b5b612e908261287b565b9050602081019050919050565b82818337600083830152505050565b6000612ebf612eba84612e6c565b612e51565b905082815260208101848484011115612edb57612eda612dec565b5b612ee6848285612e9d565b509392505050565b600082601f830112612f0357612f02612de7565b5b8135612f13848260208601612eac565b91505092915050565b60008060008060008060c08789031215612f3957612f38612770565b5b600087013567ffffffffffffffff811115612f5757612f56612775565b5b612f6389828a01612eee565b9650506020612f7489828a01612908565b9550506040612f8589828a01612908565b945050606087013567ffffffffffffffff811115612fa657612fa5612775565b5b612fb289828a01612eee565b935050608087013567ffffffffffffffff811115612fd357612fd2612775565b5b612fdf89828a01612eee565b92505060a087013567ffffffffffffffff81111561300057612fff612775565b5b61300c89828a01612eee565b9150509295509295509295565b613022816127ff565b811461302d57600080fd5b50565b60008135905061303f81613019565b92915050565b6000806040838503121561305c5761305b612770565b5b600061306a858286016129bd565b925050602061307b85828601613030565b9150509250929050565b600067ffffffffffffffff8211156130a05761309f612df1565b5b6130a98261287b565b9050602081019050919050565b60006130c96130c484613085565b612e51565b9050828152602081018484840111156130e5576130e4612dec565b5b6130f0848285612e9d565b509392505050565b600082601f83011261310d5761310c612de7565b5b813561311d8482602086016130b6565b91505092915050565b600080600080608085870312156131405761313f612770565b5b600061314e878288016129bd565b945050602061315f878288016129bd565b935050604061317087828801612908565b925050606085013567ffffffffffffffff81111561319157613190612775565b5b61319d878288016130f8565b91505092959194509250565b600080604083850312156131c0576131bf612770565b5b60006131ce858286016129bd565b92505060206131df858286016129bd565b9150509250929050565b7f4e487b7100000000000000000000000000000000000000000000000000000000600052602260045260246000fd5b6000600282049050600182168061323057607f821691505b602082108103613243576132426131e9565b5b50919050565b7f496e76616c6964206576656e7420494400000000000000000000000000000000600082015250565b600061327f601083612840565b915061328a82613249565b602082019050919050565b600060208201905081810360008301526132ae81613272565b9050919050565b7f496e73756666696369656e74207061796d656e74000000000000000000000000600082015250565b60006132eb601483612840565b91506132f6826132b5565b602082019050919050565b6000602082019050818103600083015261331a816132de565b9050919050565b7f5365617420616c72656164792074616b656e0000000000000000000000000000600082015250565b6000613357601283612840565b915061336282613321565b602082019050919050565b600060208201905081810360008301526133868161334a565b9050919050565b7f496e76616c69642073656174206e756d62657200000000000000000000000000600082015250565b60006133c3601383612840565b91506133ce8261338d565b602082019050919050565b600060208201905081810360008301526133f2816133b6565b9050919050565b7f596f752063616e20627579204d61782035207469636b65747300000000000000600082015250565b600061342f601983612840565b915061343a826133f9565b602082019050919050565b6000602082019050818103600083015261345e81613422565b9050919050565b7f4e487b7100000000000000000000000000000000000000000000000000000000600052601160045260246000fd5b600061349f826128e7565b91506134aa836128e7565b92508282039050818111156134c2576134c1613465565b5b92915050565b60006134d3826128e7565b91507fffffffffffffffffffffffffffffffffffffffffffffffffffffffffffffffff820361350557613504613465565b5b600182019050919050565b6000606082019050613525600083018661297c565b6135326020830185612af2565b61353f604083018461297c565b949350505050565b600081905092915050565b50565b6000613562600083613547565b915061356d82613552565b600082019050919050565b600061358382613555565b9150819050919050565b7f536f727279202121205769746864726177206661696c65640000000000000000600082015250565b60006135c3601883612840565b91506135ce8261358d565b602082019050919050565b600060208201905081810360008301526135f2816135b6565b9050919050565b60008190508160005260206000209050919050565b60006020601f8301049050919050565b600082821b905092915050565b60006008830261365b7fffffffffffffffffffffffffffffffffffffffffffffffffffffffffffffffff8261361e565b613665868361361e565b95508019841693508086168417925050509392505050565b6000819050919050565b60006136a261369d613698846128e7565b61367d565b6128e7565b9050919050565b6000819050919050565b6136bc83613687565b6136d06136c8826136a9565b84845461362b565b825550505050565b600090565b6136e56136d8565b6136f08184846136b3565b505050565b5b81811015613714576137096000826136dd565b6001810190506136f6565b5050565b601f8211156137595761372a816135f9565b6137338461360e565b81016020851015613742578190505b61375661374e8561360e565b8301826136f5565b50505b505050565b600082821c905092915050565b600061377c6000198460080261375e565b1980831691505092915050565b6000613795838361376b565b9150826002028217905092915050565b6137ae82612835565b67ffffffffffffffff8111156137c7576137c6612df1565b5b6137d18254613218565b6137dc828285613718565b600060209050601f83116001811461380f57600084156137fd578287015190505b6138078582613789565b86555061386f565b601f19841661381d866135f9565b60005b8281101561384557848901518255600182019150602085019450602081019050613820565b86831015613862578489015161385e601f89168261376b565b8355505b6001600288020188555050505b505050505050565b600081905092915050565b600061388d82612835565b6138978185613877565b93506138a7818560208601612851565b80840191505092915050565b60006138bf8285613882565b91506138cb8284613882565b91508190509392505050565b600081519050919050565b600082825260208201905092915050565b60006138fe826138d7565b61390881856138e2565b9350613918818560208601612851565b6139218161287b565b840191505092915050565b6000608082019050613941600083018761297c565b61394e602083018661297c565b61395b6040830185612af2565b818103606083015261396d81846138f3565b905095945050505050565b600081519050613987816127a6565b92915050565b6000602082840312156139a3576139a2612770565b5b60006139b184828501613978565b91505092915050565b7f4e487b7100000000000000000000000000000000000000000000000000000000600052601260045260246000fd5b60006040820190506139fe600083018561297c565b613a0b6020830184612af2565b939250505056fea2646970667358221220571f1d6448e25054c64b400b3a9243ec218c761a89e18dddacd21453e5ee74a364736f6c63430008140033",
  "linkReferences": {},
  "deployedLinkReferences": {}
}